:020000040800F2
:100000000000022055260008890700088D07000817
:1000100091070008950700089907000800000000F4
:100020000000000000000000000000009D07000824
:10003000A107000800000000A5070008A9070008A4
:10004000A5260008A5260008A5260008A526000864
:10005000A5260008A5260008A5260008A526000854
:10006000A5260008A5260008A5260008A526000844
:10007000A5260008A5260008A5260008A526000834
:10008000A5260008A5260008A5260008A526000824
:10009000A5260008A5260008A5260008A526000814
:1000A000AD070008A5260008A5260008A52600081B
:1000B000A5260008A5260008A5260008A5260008F4
:1000C000A5260008A5260008A5260008A5260008E4
:1000D000A5260008A5260008B9070008A5260008DF
:1000E000A5260008A5260008A5260008A5260008C4
:1000F000A5260008A5260008A5260008A5260008B4
:10010000A5260008A5260008A5260008A5260008A3
:10011000A5260008A5260008A5260008C507000892
:10012000A5260008A5260008A5260008A526000883
:10013000A5260008A5260008A5260008A526000873
:10014000A5260008A5260008A5260008A526000863
:10015000A5260008A5260008A5260008D107000846
:10016000A5260008A5260008A5260008A526000843
:10017000A5260008A5260008A52600080000000006
:08018000A5260008A5260008D1
:1001880070B50F4B0F4DAB42A3EB050607D0B61069
:10019800002455F8043B01349847A642F9D802F0E8
:1001A800CFFB094D094B5E1BAB424FEAA60606D0B2
:1001B800002455F8043B01349847A642F9D870BD8D
:1001C800802900088029000880290008842900085F
:1001D80053B94AB9002908BF00281CBF4FF0FF31A6
:1001E8004FF0FF3000F00CB8ADF1080C6DE904CE0B
:1001F80002F055FADDF804E0DDE9022304B07047A7
:10020800704700BF10B5054C237833B9044B13B1C0
:100218000448AFF300800123237010BD4000002084
:10022800000000004829000808B5034B1BB103492A
:100238000348AFF3008008BD000000004400002020
:100248004829000830B5002395B0CDE90A33CDE937
:100258000C33CDE90333CDE90533224901930793E4
:10026800086C214A40F080500864096C01F0805104
:10027800019101990293136843F480431360136852
:1002880001204FF4803103F48043CDE90801029343
:100298004FF480010224CDE90E4102980421022086
:1002A800CDE9120119224FF4A87308A810921193EE
:1002B80000F0AAFF08B172B6FEE70F220346CDE9A7
:1002C80003244FF4A0554FF4805203A80521CDE92B
:1002D8000535079201F0AEF908B172B6FEE715B020
:1002E80030BD00BF003802400070004008B501F082
:1002F80071FCFFF7A7FF00F069F800F04DF900F076
:1003080067F901F093FC00F07FF901F0A9FE1349A9
:100318001348144D144C154E022200F033FD01F021
:10032800E1FF01F091FF02F0B1F8204601224FF4FD
:10033800804101F089FB002220464FF4004101F082
:1003480083FB2046402101F083FB2B88022BE6D15A
:1003580000228021304601F077FBE0E764000020AE
:10036800680000205C0000200014024000180240D1
:1003780038B50B4B834200D038BD0A4C0A4D214694
:10038800022200F0FFFC094B24882C8001211980EF
:100398000748BDE838400022802101F055BB00BF66
:1003A8006800002064000020600000205C0000203D
:1003B80000180240034B02689A4200D0704701F0CF
:1003C80023BC00BF0014004072B6FEE72DE9F047D9
:1003D80000248EB0CDE90844CDE90A44674B009467
:1003E8000C941A6B664D674E674FDFF8A0A1DFF8D3
:1003F800A081DFF8A09142F004021A631A6B02F0A0
:1004080004020092009A01941A6B42F020021A63C7
:100418001A6B02F020020192019A02941A6B42F0C0
:1004280080021A631A6B02F080020292029A039405
:100438001A6B42F001021A631A6B02F0010203926E
:10044800039A04941A6B42F040021A631A6B02F082
:1004580040020492049A05941A6B42F010021A633F
:100468001A6B02F010020592059A06941A6B42F074
:1004780002021A631A6B02F002020692069A0794A5
:100488001A6B42F008021A631B6B03F00803079308
:10049800224628464CF2C311079B01F0D5FA2246A2
:1004A8003046402101F0D0FA22463846832101F037
:1004B800CBFA224650464FF4A84101F0C5FA22462D
:1004C80040464FF4C04101F0BFFA2246484641F683
:1004D800031101F0B9FA284608A901254CF2C31303
:1004E8000893CDE90A44099501F08AF9304608A92C
:1004F800022640230893CDE909540B9601F080F9B0
:1005080008A9384603230893CDE909540B9401F050
:1005180077F9504608A94FF4A8430893CDE9095440
:100528000B9401F06DF908A940464FF4C0430893B5
:10053800CDE909540B9601F063F94FF400424046A7
:1005480008A90023CDE908230A9601F059F948467D
:1005580008A941F603130893CDE909540B9401F057
:100568004FF9802308A93846CDE90A46099508932A
:1005780001F046F90EB0BDE8F08700BF0038024030
:10058800001402400000024000180240001002401F
:1005980000040240000C024010B50B480B4C00232D
:1005A8004FF416510C22C0E90041C0E9023303613F
:1005B80042618361C36100F053FB00B910BDBDE81F
:1005C8001040FFF701BF00BFF800002000100140F5
:1005D80010B50B480B4C00234FF4E1310C22C0E955
:1005E8000041C0E90233036142618361C36100F0E5
:1005F80037FB00B910BDBDE81040FFF7E5BE00BFEE
:10060800B00000200044004010B50B480B4C0023FC
:100618004FF416510C22C0E90041C0E902330361CE
:1006280042618361C36100F01BFB00B910BDBDE8E6
:100638001040FFF7C9BE00BF680000200014014049
:1006480030B50368484A8DB000249342CDE906448A
:10065800CDE908440A9407D0444A934227D0444A33
:1006680093424FD00DB030BD424B00945A6C424873
:1006780042F010025A645A6C02F010020092009A7A
:1006880001941A6B42F001021A631B6B9FED347BD5
:1006980003F0010301930322072306A98DED067BCE
:1006A800019C09920A9301F0ABF80DB030BD314BB3
:1006B80002941A6C304842F400321A641A6C02F43C
:1006C80000320292029A03941A6B42F001021A63F2
:1006D8001B6B03F0010303930C220223CDE90623CD
:1006E80006A9072303220A930992039D01F088F8BB
:1006F80022460121262001F023FA262001F05CFA87
:100708000DB030BD1B4B04945A6C1C4842F02002BB
:100718005A645A6C02F020020492049A05941A6BE7
:1007280042F004021A631B6B03F004030593C02212
:100738000223CDE9062306A9082303220A93099276
:10074800059D01F05DF822460221472001F0F8F9E5
:10075800472001F031FA0DB030BD00BFAFF3008083
:1007680000060000020000000010014000440040A4
:100778000014014000380240000002400008024016
:10078800FEE700BFFEE700BFFEE700BFFEE700BFD1
:10079800FEE700BF704700BF704700BF704700BF4B
:1007A800704700BF014800F0ADB900BF400100200C
:1007B800014800F081BB00BFB0000020014800F0F4
:1007C800A1B900BF88010020014800F075BB00BF37
:1007D8006800002082B00C4B002100915A6C42F452
:1007E80080425A645A6C02F480420092009A019145
:1007F8001A6C42F080521A641B6C03F08053019308
:10080800019B02B0704700BF00380240002800F08A
:10081800868038B590F83D30044603F0FF02002B7F
:1008280078D022683F49022384F83D308A42136811
:100838005CD0B2F1804F30D0A1F57C418A422CD0F7
:1008480001F580618A4228D001F580618A4224D06E
:1008580001F578418A4249D001F570518A4220D089
:1008680031498A421DD001F580618A4219D0A1F52B
:1008780098318A4215D001F580618A4211D001F57C
:1008880080618A420DD0A5696168E06823F0800321
:100898002B431360D062916210E0A16823F07003CB
:1008A8000B432069A16923F44073034323F08003B9
:1008B800E0680B4361681360D06291620123536161
:1008C80084F8463084F83E3084F83F3084F840306D
:1008D80084F8413084F8423084F8433084F8443056
:1008E80084F8453084F83D30002038BDA06821697F
:1008F80023F07003034323F440730B43A16923F0EF
:1009080080030B431360E368D3626368936263698F
:100918001363D3E780F83C2001F0B4F981E70120A4
:10092800704700BF000001400044014090F83D308E
:10093800012B2FD103681849022280F83D20DA687C
:100948008B4242F00102DA6019D0B3F1804F16D021
:10095800124A934213D002F5806293420FD002F5F7
:10096800806293420BD002F57842934207D002F599
:100978007052934203D0A2F59432934204D19A68FC
:1009880002F00702062A03D01A6842F001021A6030
:10099800002070470120704700000140000400401B
:1009A80090F83C30012B71D0024630B40223046821
:1009B80082F83D30012082F83C00A36823F47F438D
:1009C80023F07703A3600B68602B61D024D8402BF9
:1009D80077D04AD9502B17D14B68C868216A21F0C3
:1009E8000A011943236A23F001032362A36923F050
:1009F800F00343EA0013A3612162A36823F07003A4
:100A080043F05703A36000200121002382F83D1022
:100A180082F83C3030BC7047B3F5805FF3D0B3F553
:100A2800005F10D1D1E90153A0682B43CD6820F4B1
:100A38007F4143EA05230B43A360A36843F4804343
:100A4800A3600020E0E7702BDED1D1E90153A06854
:100A58002B43CD6820F47F4143EA05230B43A36071
:100A6800A36843F07703A360CDE7202B02D009D910
:100A7800302BC9D1A16821F070010B4343F0070363
:100A8800A360C0E733F01001BED1F3E7022070473E
:100A9800236A4868CD6823F010032362A169236A9A
:100AA80021F4704123F0A00343EA001341EA053121
:100AB800A1612362A36823F0700343F06703A36076
:100AC800A1E74B68C868216A21F00A011943236A23
:100AD80023F001032362A36923F0F00343EA001320
:100AE800A3612162A36823F0700343F04703A36066
:100AF80089E700BF704700BF704700BF704700BF5D
:100B0800704700BF03681A69910710B5044602D5FB
:100B1800DA6892075FD41A69500702D5DA68510774
:100B280046D41A69120702D5DA6810072ED41A6952
:100B3800D20602D5DA68D00618D41A69D10702D5C8
:100B4800DA68D2075DD41A69100602D5DA68110688
:100B58005FD41A69520602D5DA68500661D41A6958
:100B6800910602D5DA68920643D410BD6FF01001E1
:100B7800082219612277DB6913F4407F204664D08C
:100B8800FFF7BAFF002223682277D6E76FF0080143
:100B9800042219612277DB699907204652D1FFF7B1
:100BA800A9FF2046FFF7AAFF002223682277BEE7A5
:100BB8006FF004010222196122779B6913F4407FC8
:100BC80020463CD1FFF796FF2046FFF797FF00220B
:100BD80023682277A5E76FF00201012219610277E5
:100BE8009B699B0725D0FFF787FF002223682277A0
:100BF80091E76FF0200220461A61BDE8104000F02E
:100C08002BB86FF001021A612046FFF7D3FB236867
:100C180099E76FF080021A61204600F01FF82368F8
:100C280097E76FF040021A612046FFF769FF2368D3
:100C380095E7FFF75FFF2046FFF760FFD5E7FFF76F
:100C48005BFFC4E7FFF758FFAEE7FFF753FF204607
:100C5800FFF754FF96E700BF704700BF704700BF1B
:100C6800002800F0868038B590F83D30044603F03F
:100C7800FF02002B78D02368E068242284F83D2006
:100C8800DA6822F40052DA601969A26821F4405146
:100C980001432069196102436069D9680243E06928
:100CA80021F4164121F00C0102430A43DA605A6923
:100CB800A069314922F4407202438B425A6135D00F
:100CC8002E4A934232D000F059FDE2691921B2F55B
:100CD800004FD4E90053A0FB01012AD09A009B0FD2
:100CE800FFF776FA264AA2FB00135B09642101FB91
:100CF800130000013230A2FB00201B0103EB50134C
:100D0800AB602B6923F490432B616B6923F02A03B2
:100D18006B61EB680021202243F40053EB602164EF
:100D280084F83D2084F83E20084638BD00F036FDA2
:100D3800CBE7DA184FF000035B41FFF749FA104A96
:100D4800A2FB00314909642303FB1103DB003233A2
:100D5800A2FB0323C3F342121B0902EB011203F4A3
:100D6800F8731344AB60CCE780F83C20FFF768FCCD
:100D780081E70120704700BF0010014000140140C6
:100D88001F85EB5190F83E30202B26D119B312B3B2
:100D980090F83C30012B20D010B404698162002304
:100DA8002221036380F83C30C2858285036403688E
:100DB80080F83E101CB1DA6842F48072DA605A6931
:100DC8005DF8044B42F001025A61DA6842F02002F1
:100DD8000020DA607047012070470220704700BF8A
:100DE800704700BF704700BF08B5806B0023C385FC
:100DF800C384FFF7F7FF08BD704700BF8368016829
:100E0800826AB3F5805F41D0002B38D04B6803F07D
:100E18007F031370826A0132C38D8262013B9BB2E9
:100E2800C385002B31D10268D16821F0200100B5BB
:100E3800D160D16821F48071D16051694FF0200CE4
:100E480021F00101516180F83EC0016B012983B096
:100E580025D1036302F10C0353E8003F23F010038C
:100E680002F10C0C4CE800310029F3D11368DB06C1
:100E78001AD4818DFFF7C0FF03B05DF804FB036946
:100E8800002BC3D14B68DBB2C3E770470369002B63
:100E9800F8D14B68C3F3080322F8023BBCE7FFF71D
:100EA80067FA03B05DF804FB00230193136801930C
:100EB80053680193019BDCE730B503681A68DD6865
:100EC800596912F00F0F83B004466ED1910602D50E
:100ED800A90600F19F80216B01290BD0100602D5CD
:100EE800290600F1A180520602D5680600F1BB80F0
:100EF80003B030BDD006F1D5E906EFD50022019246
:100F08001A6801925A680192019A5A69550640F185
:100F18003481A06B0268526892B2002AE8D0A18D91
:100F28009142E5D9E285C269B2F5807F36D003F1F6
:100F38000C0252E8002F22F4807203F10C0545E8F8
:100F480000210029F3D103F1140252E8002F22F006
:100F5800010203F1140545E800210029F3D103F14A
:100F6800140252E8002F22F0400203F1140545E86C
:100F780000210029F3D1202284F83E20216303F1C7
:100F88000C0252E8002F22F0100203F10C0545E88C
:100F980000210029F3D100F065FDA18DE38DC91A68
:100FA800204689B2FFF728FFA2E711F0010178D1A6
:100FB80015F4907F8FD0D0070AD5E80540F1D98085
:100FC800206C40F00100206450075BD500296CD1EB
:100FD800900770D5100700F1C980216C002987D0CF
:100FE800910609D5AA0607D594F83E20222A03D1EE
:100FF8002046FFF703FF23685A69216C02F040027C
:1010080001F0080152EA01055CD12046FFF7EAFE2B
:1010180025646DE790F83E30222B7FF469AF03B06A
:10102800BDE83040FFF7EABE94F83D20212A7FF45E
:101038005FAFA168226AB1F5805F00F0D780511CCC
:10104800216212785A60E28C013A92B2E284002A54
:101058007FF44EAFDA6822F08002DA60DA6842F094
:101068004002DA6044E7DA68202122F04002DA60C0
:10107800204684F83D10FFF7B3FE39E7E8059FD412
:10108800500712D4900716D50029A3D0216C41F03F
:10109800040121641107A0D5216C41F008012164E5
:1010A8009BE7D007EAD450075BD5206C40F00200DC
:1010B80020649007EAD410078FD505F02000084374
:1010C8008BD0E9E703F10C0252E8002F22F490726A
:1010D80003F10C0040E800210029F3D103F11402C8
:1010E80052E8002F22F0010203F1140040E8002129
:1010F8000029F3D1226B012A22D00022202184F872
:101108003E1022635A69550627D503F1140252E8A6
:10111800002F22F0400203F1140040E800210029CA
:10112800F3D1A06BC8B1374B036500F0E5FC00288C
:101138003FF4DEAEA06B036D03B0BDE83040184746
:1011480003F10C0252E8002F22F0100203F10C0008
:1011580040E800210029F3D1CFE72046FFF742FEFF
:10116800C6E6910792D4110796D436E7A90693D418
:1011780033E750073FF52CAF84E7E18DE28DA08D72
:1011880092B289B2002A3FF4B3AE411A89B200295B
:101198003FF4AEAE03F10C0252E8002F22F4907235
:1011A80003F10C0545E800200028F3D103F11402EF
:1011B80052E8002F22F0010203F1140545E800204F
:1011C8000028F3D1202284F83E20206303F10C028A
:1011D80052E8002F22F0100203F10C0545E8002028
:1011E8000028F3D12046FFF707FE81E62169002990
:1011F8007FF425AF32F8021BC1F30801596022625F
:1012080021E700BFF10D0008002800F0D8812DE982
:10121800F0410368DD0782B004462FD59D498A68EE
:1012280002F00C02042A00F0EC808A6802F00C023A
:10123800082A00F0E2806368B3F5803F00F0EB8095
:10124800B3F5A02F00F07381924D2A6822F4803202
:101258002A602A6822F480222A60002B40F0E0806D
:1012680000F0DEFC064605E000F0DAFC801B64288E
:1012780000F200812B689F03F6D423689D0728D5C8
:10128800844A916811F00C0F00F09B80916801F07E
:101298000C01082900F09180E368002B00F00C8114
:1012A8007D4B7C4E01221A6000F0BAFC054605E031
:1012B80000F0B6FC401B022800F2DC8033689F0770
:1012C800F6D53368226923F0F80343EAC203336092
:1012D80023681A075CD45D073AD56E4A136C13F07D
:1012E800805340F088800193136C43F0805313645B
:1012F800136C03F080530193019B0125674E3368FB
:10130800D80540F1A780A368012B00F0B780052B12
:1013180000F01D815F4E326F22F001023267326F9A
:1013280022F004023267002B40F0AD8000F078FC18
:1013380041F28838074605E000F072FCC01B4045C2
:1013480000F29880336F9B07F6D4002D40F0F980A7
:10135800A369CBB14F4DAA6802F00C02082A00F02D
:10136800BC80022B4C4B4FF000021A6600F0F9804B
:1013780000F056FC044604E000F052FC001B022872
:1013880078D82B689B01F7D4002002B0BDE8F08123
:101398006369FBB1404B3F4E0122C3F8802E00F039
:1013A8003FFC054604E000F03BFC401B022861D8E6
:1013B800736F9B07F7D523688DE7526851023FF595
:1013C8006BAF344A1268920738D5E268012A35D0E3
:1013D8000120DAE7304A2F4EC2F8803E00F020FCA8
:1013E800054604E000F01CFC401B022842D8736F3D
:1013F8009F07F7D4DFE7002580E74A6851027FF5A9
:101408001AAF244A126892037FF538AF6268002A3F
:101418007FF434AFDCE71F4A136843F4803313606A
:1014280000F0FEFB1B4E054604E000F0F9FB401BF4
:1014380064281FD833689B03F7D51EE71549206930
:101448000A6822F0F80242EAC0020A601A077FF529
:1014580042AF9DE7336843F48073336000F0E0FBEC
:1014680007463368D9053FF54EAF00F0D9FBC01BDE
:101478000228F6D9032002B0BDE8F081054A136FAF
:1014880043F00103136700F0CBFB024F064641F21D
:1014980088380AE0003802400000474200700040E7
:1014A80000F0BEFB801B4045E4D83B6F9A07F7D598
:1014B800002D3FF44DAF44E0424A434E136000F024
:1014C800AFFB054604E000F0ABFB401B0228D1D877
:1014D80033689907F7D42368FBE6012B3FF478AF0C
:1014E8006B68E26903F4800191427FF471AF226A6C
:1014F80003F03F0191427FF46BAF616A47F6C07217
:101508001A40B2EB811F7FF463AFA26A520803F45A
:101518004031013AB1EB024F7FF45AAFE26A03F06F
:101528007063B3EB026F14BF012000202DE7264B38
:101538001A6842F480221A601A6842F480321A60EB
:101548006EE7214A136C23F08053136400E71E4BA7
:101558001A6F42F004021A671A6F42F001021A6702
:1015680091E700F05DFB064605E000F059FB801BA3
:1015780002283FF67FAF2B689901F6D4D4E90731EA
:10158800626A0B4343EA8213D4E90A21520843EA08
:101598000163013A0B4943EA024301226B600A6680
:1015A80000F03EFB084D044605E000F039FB001B47
:1015B80002283FF65FAF2B689A01F6D5E4E60120D2
:1015C800704700BF0000474200380240164908B57E
:1015D8008B6803F00C03042B1BD0082B17D14A6827
:1015E8004B68496813F4800302F03F0213D10F4897
:1015F800C1F38811A1FB0001FEF7EAFD0A4B5B6805
:10160800C3F3014301335B00B0FBF3F008BD0748A7
:1016180008BD074808BD0648C1F388110023A1FB8F
:101628000001FEF7D5FDE9E7003802400024F40088
:1016380040787D01002800F08780484A136803F04D
:1016480007038B422DE9F0410D46044609D2CBB27F
:101658001370136803F007038B4202D00120BDE822
:10166800F0812368980714D5590704D53C498A683E
:1016780042F4E0528A601A0704D539498A6842F46C
:1016880060428A603649A0688A6822F0F002024304
:101698008A60DF0721D56268012A57D0931E012B83
:1016A8002F4B1B684DD99907D8D52D4EB36823F019
:1016B80003031343B36000F0B3FA41F288380746D6
:1016C80004E000F0ADFAC01B404544D8B368626836
:1016D80003F00C03B3EB820FF3D1204A136803F035
:1016E8000703AB4206D9EBB21370136803F0070384
:1016F800AB42B3D123685A0706D51949E0688A680E
:1017080022F4E05202438A601B0707D5144A216974
:10171800936823F4604343EAC1039360FFF756FFDD
:101728000F4A104C92681049C2F303120346A25C98
:101738000E48D34000680B6000F0C4FA0020BDE8F2
:10174800F0819801B1D489E701207047044B1B68E8
:101758009E03AAD482E7032081E700BF003C024031
:1017680000380240682900083800002004000020E2
:10177800014B1868704700BF38000020044B05492A
:101788009B68054A0868C3F38223D35CD840704736
:10179800003802403800002060290008044B054941
:1017A8009B68054A0868C3F34233D35CD840704746
:1017B8000038024038000020602900080E4B0F2234
:1017C80002609A6802F0030242609A6802F0F0022E
:1017D80082609A6802F4E052C2609B68DB0810B429
:1017E80003F4E053054C036123685DF8044B03F0F0
:1017F80007030B60704700BF00380240003C0240FE
:101808002DE9F04F00230C68DFF818A285B04FF0DF
:10181800010B894603E00133102B00F091800BFA8D
:1018280003F202EA0408A243F5D1D9F8041001F042
:1018380003024FEA430C0325571E05FA0CF5012F46
:101848006FEA05057FD9032A40F0B680076802FAD7
:101858000CF23D402A4311F4403F0260DBD00022E5
:101868000392DAF8442042F48042CAF84420DAF8B5
:10187800442002F480420392039A23F0030202F107
:10188800804203F003070F2602F59C32BF0006FAD8
:1018980007FC614E9568B04225EA0C0527D006F58D
:1018A8008066B04200F093805C4EB04200F09580B4
:1018B800DFF874C1604500F09680DFF870C16045BC
:1018C80000F09780DFF868C1604500F09880DFF885
:1018D80064C1604500F09980DFF85CC160450CBFC9
:1018E8004FF0070C4FF0080C0CFA07F73D439560D2
:1018F8004B4A9268CE026FEA0805494E54BF2A4007
:1019080048EA0202B260F268454E8F0254BF2A408C
:1019180048EA0202F26072688E03414E54BF2A40C0
:1019280048EA020272603268C90303F101033C49C4
:1019380054BF2A4048EA0202102B0A607FF46FAFB6
:1019480005B0BDE8F08F876807EA050ED9F80C7076
:1019580007FA0CF747EA0E078760476827EA080E78
:10196800C1F300179F4047EA0E074760C76807EAB8
:10197800050ED9F8087007FA0CF747EA0E07022A8D
:10198800C7607FF463AFDF0800EB870701973E6A03
:10199800D9F81070009603F0070E4FEA8E0E0F2646
:1019A80007FA0EF706FA0EFE009E26EA0E0E019EB4
:1019B80047EA0E07376249E7C76807EA050ED9F80C
:1019C800087007FA0CF747EA0E07C7603EE74FF0C2
:1019D800010C0CFA07F73D4389E74FF0020C0CFAAB
:1019E80007F73D4383E74FF0030C0CFA07F73D4335
:1019F8007DE74FF0040C0CFA07F73D4377E74FF00B
:101A0800050C0CFA07F73D4371E74FF0060C0CFA8A
:101A180007F73D436BE700BF0000024000080240A3
:101A2800003C014000380240000C02400010024017
:101A38000014024000180240001C024003691942C9
:101A480014BF01200020704702B909048161704762
:101A5800436901EA030221EA030141EA0241816183
:101A6800704700BF70B50446866D00F0D9F894F849
:101A78003530022B06D080236365002384F8343088
:101A8800012070BD23681A6822F016021A605A698C
:101A980022F080025A61226C054642B31A6822F08D
:101AA80008021A601A6822F001021A6005E000F0C4
:101AB800B7F8431B052B10D823681B6813F00103E4
:101AC800F5D1E16D3F228A40184601210023B2601A
:101AD80084F8351084F8343070BD03232022626501
:101AE800184684F83530002384F8343070BDA26C71
:101AF800002AD3D1D6E700BF90F83530022B03D0A7
:101B080080234365012070470268052380F835303B
:101B1800136823F001030020136070470749CA685F
:101B280003024FF6FF0003F4E0630240134343F05F
:101B3800BF6343F40033CB60704700BF00ED00E0A3
:101B48001B4BDB68C3F3022300B5C3F1070EBEF1DC
:101B5800040F03F1040C28BF4FF0040EBCF1060F6C
:101B68001CD9A3F1030C4FF0FF3303FA0CF322EA5C
:101B780003024FF0FF3303FA0EF321EA030303FADB
:101B88000CF313431B010028DBB20ADB00F16040B1
:101B980000F5614080F800335DF804FB00229446AC
:101BA800E7E7044A00F00F00024413765DF804FBEF
:101BB80000ED00E0FCEC00E0002807DB4109044AE6
:101BC80000F01F000123834042F82130704700BF16
:101BD80000E100E008B50B4B1A6842F400721A6085
:101BE8001A6842F480621A601A6842F480721A60B5
:101BF8000320FFF793FF0F2000F064F8FEF7EAFDDB
:101C0800002008BD003C0240034A044B11681B78C1
:101C18000B441360704700BF3C0100200000002007
:101C2800014B1868704700BF3C01002000B51348FD
:101C3800134901605322002385B042604FF6FF72BA
:101C4800CDE90033CDE902338360C260036183616B
:101C5800FEF7DCFD50B94FF48053084800936946FD
:101C6800FEF79EFE28B905B05DF804FBFEF7ACFB55
:101C7800F1E7FEF7A9FB05B05DF804FB4001002081
:101C8800004001400E4B02689A4200D0704700B5F0
:101C980083B0002203F578430192596C41F48031F6
:101CA80059645B6C03F48033019318201146019B3F
:101CB800FFF746FF182003B05DF804EBFFF77CBF81
:101CC8000040014070B588B0234B002202921A6C84
:101CD80042F020021A641B6C03F0200302930546AD
:101CE80001A903A8029BFFF769FD069BD3B9FFF77B
:101CF80045FD0346194A1A4C1A49A2FB03239B0CBB
:101D0800013B0022C4E90013204640F2E733226178
:101D1800A260A261E360FEF779FD064630B1304665
:101D280008B070BDFFF72AFD4300E3E72046FEF741
:101D3800FDFD06460028F2D13720FFF73DFF0F2DA5
:101D480001D90126EBE7324629463720FFF7F8FE8E
:101D5800054B1D60E3E700BF0038024083DE1B43EC
:101D680088010020001400400400002070B582B0F3
:101D78000123ADF80630ADF80630BDF806302D4E1B
:101D88009BB20022FF2B72703ED82B4C0546BDF843
:101D980006302B404FF001024FF4804104BF1A4631
:101DA8004FF48041204608BF2046FFF74DFE012230
:101DB8004FF400512046FFF747FEFFF7D9FC0022F9
:101DC8004FF400512046FFF73FFEFFF7D1FC4FF4D8
:101DD800005120460122FFF737FE4FF4004120460C
:101DE800FFF72CFEA8B1BDF80610BDF806307278D2
:101DF8009BB25B009BB2ADF80630BDF806309BB2D3
:101E08000A43FF2B7270C2D902B0BDE87040FFF7D9
:101E1800AFBCBDF806309BB25B009BB2ADF8063094
:101E2800BDF806309BB2FF2BB1D902B0BDE87040B7
:101E3800FFF79EBCD00100200004024070B53A4C68
:101E48003A4882B00022402101268DF80520ADF8DD
:101E58000660FFF7F9FD2078FFF788FF6078FFF745
:101E680085FF02238DF805309DF80530082B45D8ED
:101E78002F4C304DADF80660BDF806309BB2FF2BF5
:101E880030D801224FF400512046FFF7DDFDFFF75F
:101E98006FFC00224FF400512046FFF7D5FDFFF7F5
:101EA80067FC4FF4005120460122FFF7CDFD4FF4A7
:101EB80000412046FFF7C2FD40B3BDF806009DF87B
:101EC80005209DF80510BDF80630AA5C9BB25B00A2
:101ED8009BB2ADF80630BDF806309BB20243FF2B2B
:101EE8006A54CED9FFF744FC9DF805300133DBB2C4
:101EF8008DF805309DF80530082BBBD90B48012219
:101F0800402102B0BDE87040FFF79EBDBDF8063025
:101F18009BB25B009BB2ADF80630BDF806309BB2B1
:101F2800FF2BAED9DEE700BF2800002000000240EA
:101F380000040240D001002010B5464C0023C4E93B
:101F480000332372FFF77AFF434AB4F8033011884D
:101F58004248013943FA01F1C90703805CD5518829
:101F6800013943FA01F1CC0758D59188013943FA70
:101F780001F1C90756D5D188013943FA01F1CC07D7
:101F880052D51189013943FA01F1C9074ED5518952
:101F9800013943FA01F1CC074AD59189013943FA4D
:101FA80001F1C90746D5D189013943FA01F1CC07B6
:101FB80042D5118A013943FA01F1C9073ED5518A40
:101FC800013943FA01F1CC073AD5918A013943FA2C
:101FD80001F1C90736D5D18A013943FA01F1CC0795
:101FE80032D5118B013943FA01F1C90718D5518B44
:101FF800013943FA01F1CC0728D5918B013943FA0D
:1020080001F1C90724D5D28B013A134113F0010F0E
:1020180014BF0020102010BD012010BD022010BDEB
:102028000D2010BD032010BD042010BD052010BDDB
:10203800062010BD072010BD082010BD092010BDC6
:102048000A2010BD0B2010BD0C2010BD0E2010BDA5
:102058000F2010BDD001002008000020DA01002068
:1020680010B5784C002240212046FFF7EDFCFFF721
:102078007FFB0120FFF77AFE4220FFF777FE002062
:10208800FFF774FE0020FFF771FE0020FFF76EFED9
:10209800012240212046FFF7D7FCFFF769FB002209
:1020A80040212046FFF7D0FCFFF762FB0120FFF735
:1020B8005DFE4220FFF75AFE0020FFF757FE002082
:1020C800FFF754FE0020FFF751FE01224021204671
:1020D800FFF7BAFCFFF74CFB002240212046FFF730
:1020E800B3FCFFF745FB0120FFF740FE4220FFF756
:1020F8003DFE0020FFF73AFE0020FFF737FE0020E4
:10210800FFF734FE012240212046FFF79DFCFFF730
:102118002FFB002240212046FFF796FCFFF728FB03
:102128000120FFF723FE4320FFF720FE0020FFF7E2
:102138001DFE0120FFF71AFE0020FFF717FE002002
:10214800FFF714FE0020FFF711FE0020FFF70EFE38
:102158000020FFF70BFE012240212046FFF774FC08
:10216800FFF706FB002240212046FFF76DFC012007
:10217800FFF7FCFD4420FFF7F9FD0020FFF7F6FD0F
:102188000120FFF7F3FDEE20FFF7F0FD0020FFF739
:10219800EDFD0020FFF7EAFD0020FFF7E7FD002036
:1021A800FFF7E4FD012240212046FFF74DFCFFF731
:1021B800DFFA002240212046FFF746FCFFF7D8FA55
:1021C8000120FFF7D3FD4D20FFF7D0FD0020FFF7DA
:1021D800CDFD0020FFF7CAFD0120FFF7C7FD012252
:1021E80040212046FFF730FCFFF7C2FA00224021C9
:1021F8002046FFF729FCFFF7BBFA0120FFF7B6FDE1
:102208004320FFF7B3FD0020FFF7B0FD0020FFF7E4
:10221800ADFD5A20FFF7AAFD5A20FFF7A7FD5A2067
:10222800FFF7A4FD5A20FFF7A1FD5A20FFF79EFDF6
:10223800204601224021FFF707FCBDE81040FFF7C8
:1022480097BA00BF0000024038B54FF400711F482C
:102258001F4D204CFFF7F2FB4FF4807103462846D0
:102268002380FFF7EBFB4FF4007103461A486380A5
:10227800FFF7E4FB4FF4007103462846A380FFF7FD
:10228800DDFB4FF4806103462846E380FFF7D6FB69
:102298002021034611482381FFF7D0FB6388228859
:1022A800E588608103EB8303C2EB421103EB8303F0
:1022B80002EB81029B0003EBC203A28808492B446E
:1022C80002EB820203EB42030B8038BD001402408C
:1022D800000802402C0000200018024000000240C4
:1022E8005E00002008B5FFF727FE01380F2809D83F
:1022F800DFE800F0200808084E5E61797C8F9DB009
:1023080008B408BD5E4800224FF40061FFF79CFB4B
:102318005B4800224FF48051FFF796FB5948002292
:102328000121FFF791FBBDE8084056480022022131
:10233800FFF78ABB524800224FF40061FFF784FB85
:102348004F4800224FF48051FFF77EFB4D48002292
:102358000121FFF779FB4B4800220221FFF774FBAC
:10236800484800224FF48041FFF76EFB45480022A1
:102378004FF40041FFF768FB414800220121FFF7B5
:1023880063FBBDE808403E4800220221FFF75CBB22
:102398003B4801224FF40061FFF756FB3848002202
:1023A8004FF48051FFF750FB012236481146B8E739
:1023B80033480022EEE7324800224FF40061FFF76D
:1023C80043FB2F4801224FF48051FFF73DFB2D4876
:1023D80000220121FFF738FBBDE808402948012207
:1023E8000221FFF731BB264801228DE7254800224C
:1023F8004FF48041FFF728FB224800224FF40041A8
:10240800FFF722FBBDE808401F4800228021FFF7A4
:102418001BBB1B4800220121FFF716FB18480022AE
:102428000221FFF711FB184801228021E8E715482F
:1024380001224FF48041FFF707FB124800224FF4B6
:102448000041FFF701FBBDE808400F480122802149
:10245800FFF7FABA01220A481146DDE708480022C8
:102468004FF40061FFF7F0FA05480022ABE7044893
:1024780000224FF40061FFF7E7FA0148012249E71B
:10248800000C0240001402400018024008B5654BD9
:102498001B886F2B00F0BC800BD80B2B23D80B2B81
:1024A80054D8DFE803F057745353535353535353DB
:1024B8008C9540F24C42934200F09E8025D940F220
:1024C8005742934242D1584801224FF40061FFF726
:1024D800BBFA554800224FF48051FFF7B5FA0122A4
:1024E8005248114683E0652B30D1504801224FF401
:1024F8008041FFF7A9FA4D4800224FF40041FFF749
:10250800A3FA01224848114650E0B3F57A7F76D005
:1025180040F2F232934219D1434800224FF400614D
:10252800FFF792FA404800224FF48051FFF78CFAE7
:102538003E4800220121FFF787FA00223B4802218A
:10254800FFF782FA3A4B00221A7008BD384B002276
:102558001A7008BD344800224FF40061FFF774FA7E
:10256800314801224FF48051FFF76EFA2F480022BC
:102578000121FFF769FA2D4801220221FFF764FAC9
:10258800BDE808402B4800228021FFF75DBA2748A4
:1025980000224FF48041FFF757FA244800224FF4F5
:1025A8000041FFF751FA204800220121FFF74CFAB9
:1025B800BDE808401C4800220221FFF745BA1A4826
:1025C80000224FF40061FFF73FFA17480022C9E7DD
:1025D800154801224FF40061FFF736FA124800222D
:1025E8004FF48051FFF730FA104800220121FFF71D
:1025F8002BFA0E480022C0E70B48002265E70A487C
:1026080000224FF40061FFF71FFA07480122E7E7AD
:10261800074B084801221A70BDE808408021FFF7DF
:1026280013BA00BF5E000020000C024000140240F4
:10263800DC01002000180240034AD2F8883043F435
:102648007003C2F88830704700ED00E0DFF834D03E
:102658000D480E490E4A002302E0D458C4500433F2
:10266800C4188C42F9D30B4A0B4C002301E01360C9
:102678000432A242FBD3FFF7DFFFFDF781FDFDF730
:1026880035FE704700000220000000203C000020BA
:102698008829000840000020E0010020FEE72DE91D
:1026A800F04786468C460846089E154674461946E5
:1026B800002B40F0C2808542B2FA82F245D94AB175
:1026C800C2F1200300FA02FC2EFA03F3954043EA14
:1026D8000C0C94404FEA154EA8B2BCFBFEF8230C34
:1026E8000EFB18CC08FB00F943EA0C43994528D99E
:1026F800EB1808F1FF3704D2994502D9A8F102076F
:102708002B44A3EB0903A4B2B3FBFEFC0EFB1C3362
:102718000CFB00F044EA0344A04214D92C190CF134
:10272800FF3304D2A04202D9ACF102032C44241A8C
:1027380043EA07401EB1D440002334607360BDE80B
:10274800F0874746DDE76346F1E792BB431B01216B
:102758004FEA154EAFB2B3FBFEFC200C0EFB1C3348
:102768000CFB07F840EA0343984562D9EB180CF1D3
:10277800FF3004D2984502D9ACF102002B44A3EBF8
:102788000803A4B2B3FBFEFC0EFB1C330CFB07F7DB
:1027980044EA0344A7424ED92C190CF1FF3304D262
:1027A800A74202D9ACF102032C44E41B43EA0040DF
:1027B800C0E7C2F1200320FA03F1954090402EFAB9
:1027C80003F303434FEA154EAFB2B1FBFEFC0EFB19
:1027D8001C10190C0CFB07F841EA0041884504FA63
:1027E80002F422D969180CF1FF3004D2884502D9C5
:1027F800ACF102002944A1EB08019BB2B1FBFEFC3D
:102808000EFB1C110CFB07F743EA01439F420ED94C
:10281800EB180CF1FF3104D29F4202D9ACF102014E
:102828002B44DB1B41EA004192E76046E3E761463F
:10283800F7E76046A3E76346B7E7834206D916B9C8
:10284800002108467BE7C6E900E0F9E7B3FA83F719
:102858008FB9834201D3724508D8BEEB020460EBFE
:10286800030301209C461EB9002168E73846FAE7B1
:10287800C6E9004CF8E7C7F1200CBB4022FA0CF47B
:102888001C432EFA0CF120FA0CF3B84001434FEA2E
:1028980014490EFA07F5B3FBF9F81FFA84FE09FB91
:1028A80018300B0C08FB0EFA43EA00439A4502FA6B
:1028B80007F240D9E31808F1FF3004D29A4502D94B
:1028C800A8F102002344A3EB0A0389B2B3FBF9F889
:1028D80009FB183308FB0EFE41EA03418E452CD94B
:1028E800611808F1FF3304D28E4502D9A8F102031A
:1028F800214443EA0040A0FB0298A1EB0E014145A8
:10290800CE46434602D306D14D4504D2B9EB020E5A
:1029180068EB04030138002EA6D0B5EB0E0261EB7C
:10292800030101FA0CFC22FA07F34CEA0303F9400D
:10293800C6E9003198E74046C5E74346D9E70000B5
:10294800F8B500BFF8BC08BC9E467047F8B500BF94
:08295800F8BC08BC9E46704764
:10296000000000000102030400000000000000005D
:08297000010203040607080937
:082978002EFDFF7F01000000AD
:042980003102000818
:042984000D02000838
:102988000100000010000000010002000300040024
:10299800050006000700080009000A000B000C00EB
:1029A8000D000E000F00100001420000020002009E
:0C29B80002000200020002000024F400F3
:040000050800265574
:00000001FF
